{
  "_format": "hh-sol-artifact-1",
  "contractName": "OrderBook",
  "sourceName": "contracts/OrderBook/OrderBook.sol",
  "abi": [
    {
      "anonymous": false,
      "inputs": [
        {
          "indexed": false,
          "internalType": "uint8",
          "name": "version",
          "type": "uint8"
        }
      ],
      "name": "Initialized",
      "type": "event"
    },
    {
      "anonymous": false,
      "inputs": [
        {
          "indexed": true,
          "internalType": "address",
          "name": "previousOwner",
          "type": "address"
        },
        {
          "indexed": true,
          "internalType": "address",
          "name": "newOwner",
          "type": "address"
        }
      ],
      "name": "OwnershipTransferred",
      "type": "event"
    },
    {
      "inputs": [
        {
          "internalType": "uint256",
          "name": "",
          "type": "uint256"
        }
      ],
      "name": "FxPerpetuals",
      "outputs": [
        {
          "internalType": "address",
          "name": "",
          "type": "address"
        }
      ],
      "stateMutability": "view",
      "type": "function"
    },
    {
      "inputs": [
        {
          "internalType": "uint256",
          "name": "",
          "type": "uint256"
        }
      ],
      "name": "Vaults",
      "outputs": [
        {
          "internalType": "address",
          "name": "",
          "type": "address"
        }
      ],
      "stateMutability": "view",
      "type": "function"
    },
    {
      "inputs": [
        {
          "internalType": "address",
          "name": "_perpetual",
          "type": "address"
        },
        {
          "internalType": "address",
          "name": "_vault",
          "type": "address"
        },
        {
          "internalType": "bytes32",
          "name": "_priceFeedKey",
          "type": "bytes32"
        }
      ],
      "name": "addFxPerpetual",
      "outputs": [],
      "stateMutability": "nonpayable",
      "type": "function"
    },
    {
      "inputs": [
        {
          "internalType": "uint256",
          "name": "",
          "type": "uint256"
        }
      ],
      "name": "buyHeads",
      "outputs": [
        {
          "internalType": "uint256",
          "name": "",
          "type": "uint256"
        }
      ],
      "stateMutability": "view",
      "type": "function"
    },
    {
      "inputs": [],
      "name": "buyID",
      "outputs": [
        {
          "internalType": "uint256",
          "name": "",
          "type": "uint256"
        }
      ],
      "stateMutability": "view",
      "type": "function"
    },
    {
      "inputs": [
        {
          "internalType": "uint256",
          "name": "_ID",
          "type": "uint256"
        }
      ],
      "name": "deleteBuy",
      "outputs": [],
      "stateMutability": "nonpayable",
      "type": "function"
    },
    {
      "inputs": [
        {
          "internalType": "uint256",
          "name": "_ID",
          "type": "uint256"
        }
      ],
      "name": "deleteSell",
      "outputs": [],
      "stateMutability": "nonpayable",
      "type": "function"
    },
    {
      "inputs": [
        {
          "internalType": "uint256",
          "name": "_ID",
          "type": "uint256"
        }
      ],
      "name": "getBuy",
      "outputs": [
        {
          "internalType": "address",
          "name": "maker",
          "type": "address"
        },
        {
          "internalType": "uint256",
          "name": "index",
          "type": "uint256"
        },
        {
          "internalType": "uint256",
          "name": "id",
          "type": "uint256"
        },
        {
          "internalType": "uint256",
          "name": "price",
          "type": "uint256"
        },
        {
          "internalType": "uint256",
          "name": "volume",
          "type": "uint256"
        },
        {
          "internalType": "uint256",
          "name": "next",
          "type": "uint256"
        },
        {
          "internalType": "uint256",
          "name": "prev",
          "type": "uint256"
        }
      ],
      "stateMutability": "view",
      "type": "function"
    },
    {
      "inputs": [
        {
          "internalType": "uint256",
          "name": "_tokenIndex",
          "type": "uint256"
        }
      ],
      "name": "getBuyHead",
      "outputs": [
        {
          "internalType": "uint256",
          "name": "",
          "type": "uint256"
        }
      ],
      "stateMutability": "view",
      "type": "function"
    },
    {
      "inputs": [
        {
          "internalType": "uint256",
          "name": "_tokenIndex",
          "type": "uint256"
        }
      ],
      "name": "getOpenBuyOrders",
      "outputs": [
        {
          "internalType": "uint256",
          "name": "",
          "type": "uint256"
        }
      ],
      "stateMutability": "view",
      "type": "function"
    },
    {
      "inputs": [
        {
          "internalType": "uint256",
          "name": "_tokenIndex",
          "type": "uint256"
        }
      ],
      "name": "getOpenSellOrders",
      "outputs": [
        {
          "internalType": "uint256",
          "name": "",
          "type": "uint256"
        }
      ],
      "stateMutability": "view",
      "type": "function"
    },
    {
      "inputs": [
        {
          "internalType": "uint256",
          "name": "_ID",
          "type": "uint256"
        }
      ],
      "name": "getSell",
      "outputs": [
        {
          "internalType": "address",
          "name": "maker",
          "type": "address"
        },
        {
          "internalType": "uint256",
          "name": "index",
          "type": "uint256"
        },
        {
          "internalType": "uint256",
          "name": "id",
          "type": "uint256"
        },
        {
          "internalType": "uint256",
          "name": "price",
          "type": "uint256"
        },
        {
          "internalType": "uint256",
          "name": "volume",
          "type": "uint256"
        },
        {
          "internalType": "uint256",
          "name": "next",
          "type": "uint256"
        },
        {
          "internalType": "uint256",
          "name": "prev",
          "type": "uint256"
        }
      ],
      "stateMutability": "view",
      "type": "function"
    },
    {
      "inputs": [
        {
          "internalType": "uint256",
          "name": "_tokenIndex",
          "type": "uint256"
        }
      ],
      "name": "getSellHead",
      "outputs": [
        {
          "internalType": "uint256",
          "name": "",
          "type": "uint256"
        }
      ],
      "stateMutability": "view",
      "type": "function"
    },
    {
      "inputs": [
        {
          "internalType": "address[]",
          "name": "_FxPerpetuals",
          "type": "address[]"
        },
        {
          "internalType": "address[]",
          "name": "_Vaults",
          "type": "address[]"
        },
        {
          "internalType": "bytes32[]",
          "name": "_priceFeedKeys",
          "type": "bytes32[]"
        },
        {
          "internalType": "address",
          "name": "_USD",
          "type": "address"
        },
        {
          "internalType": "address",
          "name": "_Oracle",
          "type": "address"
        }
      ],
      "name": "initialize",
      "outputs": [],
      "stateMutability": "nonpayable",
      "type": "function"
    },
    {
      "inputs": [
        {
          "internalType": "uint256",
          "name": "",
          "type": "uint256"
        }
      ],
      "name": "lastCumulativePriceUpdate",
      "outputs": [
        {
          "internalType": "uint256",
          "name": "",
          "type": "uint256"
        }
      ],
      "stateMutability": "view",
      "type": "function"
    },
    {
      "inputs": [
        {
          "internalType": "uint256",
          "name": "",
          "type": "uint256"
        }
      ],
      "name": "lastPriceCumulative",
      "outputs": [
        {
          "internalType": "uint256",
          "name": "",
          "type": "uint256"
        }
      ],
      "stateMutability": "view",
      "type": "function"
    },
    {
      "inputs": [
        {
          "internalType": "uint256",
          "name": "_tokenIndex",
          "type": "uint256"
        },
        {
          "internalType": "uint256",
          "name": "_price",
          "type": "uint256"
        },
        {
          "internalType": "uint256",
          "name": "_volume",
          "type": "uint256"
        },
        {
          "internalType": "uint256",
          "name": "_targetInsertion",
          "type": "uint256"
        }
      ],
      "name": "limitBuy",
      "outputs": [
        {
          "internalType": "uint256",
          "name": "newID",
          "type": "uint256"
        }
      ],
      "stateMutability": "nonpayable",
      "type": "function"
    },
    {
      "inputs": [
        {
          "internalType": "uint256",
          "name": "_tokenIndex",
          "type": "uint256"
        },
        {
          "internalType": "uint256",
          "name": "_price",
          "type": "uint256"
        },
        {
          "internalType": "uint256",
          "name": "_volume",
          "type": "uint256"
        },
        {
          "internalType": "uint256",
          "name": "_targetInsertion",
          "type": "uint256"
        }
      ],
      "name": "limitSell",
      "outputs": [
        {
          "internalType": "uint256",
          "name": "newID",
          "type": "uint256"
        }
      ],
      "stateMutability": "nonpayable",
      "type": "function"
    },
    {
      "inputs": [
        {
          "internalType": "uint256",
          "name": "_tokenIndex",
          "type": "uint256"
        },
        {
          "internalType": "uint256",
          "name": "_maxPrice",
          "type": "uint256"
        },
        {
          "internalType": "uint256",
          "name": "_volume",
          "type": "uint256"
        }
      ],
      "name": "marketBuy",
      "outputs": [
        {
          "internalType": "uint256",
          "name": "",
          "type": "uint256"
        }
      ],
      "stateMutability": "nonpayable",
      "type": "function"
    },
    {
      "inputs": [
        {
          "internalType": "uint256",
          "name": "_tokenIndex",
          "type": "uint256"
        },
        {
          "internalType": "uint256",
          "name": "_minPrice",
          "type": "uint256"
        },
        {
          "internalType": "uint256",
          "name": "_volume",
          "type": "uint256"
        }
      ],
      "name": "marketSell",
      "outputs": [
        {
          "internalType": "uint256",
          "name": "",
          "type": "uint256"
        }
      ],
      "stateMutability": "nonpayable",
      "type": "function"
    },
    {
      "inputs": [
        {
          "internalType": "uint256",
          "name": "_ID",
          "type": "uint256"
        },
        {
          "internalType": "uint256",
          "name": "_newVolume",
          "type": "uint256"
        }
      ],
      "name": "modifyBuy",
      "outputs": [],
      "stateMutability": "nonpayable",
      "type": "function"
    },
    {
      "inputs": [
        {
          "internalType": "uint256",
          "name": "_ID",
          "type": "uint256"
        },
        {
          "internalType": "uint256",
          "name": "_newVolume",
          "type": "uint256"
        }
      ],
      "name": "modifySell",
      "outputs": [],
      "stateMutability": "nonpayable",
      "type": "function"
    },
    {
      "inputs": [
        {
          "internalType": "uint256",
          "name": "",
          "type": "uint256"
        }
      ],
      "name": "openBuyOrders",
      "outputs": [
        {
          "internalType": "uint256",
          "name": "",
          "type": "uint256"
        }
      ],
      "stateMutability": "view",
      "type": "function"
    },
    {
      "inputs": [
        {
          "internalType": "uint256",
          "name": "",
          "type": "uint256"
        }
      ],
      "name": "openSellOrders",
      "outputs": [
        {
          "internalType": "uint256",
          "name": "",
          "type": "uint256"
        }
      ],
      "stateMutability": "view",
      "type": "function"
    },
    {
      "inputs": [],
      "name": "owner",
      "outputs": [
        {
          "internalType": "address",
          "name": "",
          "type": "address"
        }
      ],
      "stateMutability": "view",
      "type": "function"
    },
    {
      "inputs": [
        {
          "internalType": "uint256",
          "name": "",
          "type": "uint256"
        }
      ],
      "name": "priceCumulative",
      "outputs": [
        {
          "internalType": "uint256",
          "name": "",
          "type": "uint256"
        }
      ],
      "stateMutability": "view",
      "type": "function"
    },
    {
      "inputs": [],
      "name": "renounceOwnership",
      "outputs": [],
      "stateMutability": "nonpayable",
      "type": "function"
    },
    {
      "inputs": [
        {
          "internalType": "uint256",
          "name": "",
          "type": "uint256"
        }
      ],
      "name": "sellHeads",
      "outputs": [
        {
          "internalType": "uint256",
          "name": "",
          "type": "uint256"
        }
      ],
      "stateMutability": "view",
      "type": "function"
    },
    {
      "inputs": [],
      "name": "sellID",
      "outputs": [
        {
          "internalType": "uint256",
          "name": "",
          "type": "uint256"
        }
      ],
      "stateMutability": "view",
      "type": "function"
    },
    {
      "inputs": [
        {
          "internalType": "uint256",
          "name": "",
          "type": "uint256"
        }
      ],
      "name": "totalPriceDataPoints",
      "outputs": [
        {
          "internalType": "uint256",
          "name": "",
          "type": "uint256"
        }
      ],
      "stateMutability": "view",
      "type": "function"
    },
    {
      "inputs": [
        {
          "internalType": "address",
          "name": "newOwner",
          "type": "address"
        }
      ],
      "name": "transferOwnership",
      "outputs": [],
      "stateMutability": "nonpayable",
      "type": "function"
    }
  ],
  "bytecode": "0x608060405234801561001057600080fd5b50615365806100206000396000f3fe608060405234801561001057600080fd5b50600436106101e55760003560e01c80638da5cb5b1161010f578063c2b422d0116100a2578063dde4a70b11610071578063dde4a70b14610626578063f0768cf71461065c578063f2fde38b1461068c578063f32a547c146106a8576101e5565b8063c2b422d01461057a578063c8ccd727146105aa578063c9b54ef0146105da578063d6d423d8146105f6576101e5565b8063a813643c116100de578063a813643c146104ba578063affb21a3146104ea578063b55e09121461051a578063c146ce0a1461054a576101e5565b80638da5cb5b1461043257806393a7215e146104505780639a699d4a1461046e5780639ff1549c1461049e576101e5565b806359d5445b116101875780636ba755ef116101565780636ba755ef146103985780636f41e8c2146103c8578063715018a6146103f85780637d9c5d4c14610402576101e5565b806359d5445b146103005780635aca84151461031c5780635c285acb1461034c5780635dd5fcdc1461037c576101e5565b80633c8e5d44116101c35780633c8e5d441461026657806344e9887b14610296578063476d4f3f146102b45780635091bf94146102e4576101e5565b8063173c719a146101ea5780631bed7a811461020657806335460d9214610236575b600080fd5b61020460048036038101906101ff91906147e9565b6106de565b005b610220600480360381019061021b91906148d1565b610865565b60405161022d9190614ad9565b60405180910390f35b610250600480360381019061024b91906148d1565b6108a4565b60405161025d9190614cb0565b60405180910390f35b610280600480360381019061027b919061495f565b6108bc565b60405161028d9190614cb0565b60405180910390f35b61029e610e7e565b6040516102ab9190614cb0565b60405180910390f35b6102ce60048036038101906102c991906148d1565b610e84565b6040516102db9190614cb0565b60405180910390f35b6102fe60048036038101906102f9919061479a565b610e9c565b005b61031a600480360381019061031591906148d1565b61100c565b005b610336600480360381019061033191906148d1565b61118e565b6040516103439190614ad9565b60405180910390f35b610366600480360381019061036191906148d1565b6111cd565b6040516103739190614cb0565b60405180910390f35b61039660048036038101906103919190614923565b6111e5565b005b6103b260048036038101906103ad91906149ae565b6115b1565b6040516103bf9190614cb0565b60405180910390f35b6103e260048036038101906103dd91906148d1565b611ee7565b6040516103ef9190614cb0565b60405180910390f35b610400611f04565b005b61041c600480360381019061041791906148d1565b611f8c565b6040516104299190614cb0565b60405180910390f35b61043a611fa9565b6040516104479190614ad9565b60405180910390f35b610458611fd3565b6040516104659190614cb0565b60405180910390f35b610488600480360381019061048391906148d1565b611fd9565b6040516104959190614cb0565b60405180910390f35b6104b860048036038101906104b391906148d1565b611ff1565b005b6104d460048036038101906104cf91906148d1565b61218f565b6040516104e19190614cb0565b60405180910390f35b61050460048036038101906104ff91906148d1565b6121a7565b6040516105119190614cb0565b60405180910390f35b610534600480360381019061052f919061495f565b6121c4565b6040516105419190614cb0565b60405180910390f35b610564600480360381019061055f91906148d1565b61273d565b6040516105719190614cb0565b60405180910390f35b610594600480360381019061058f91906148d1565b612755565b6040516105a19190614cb0565b60405180910390f35b6105c460048036038101906105bf91906148d1565b61276d565b6040516105d19190614cb0565b60405180910390f35b6105f460048036038101906105ef9190614923565b61278a565b005b610610600480360381019061060b91906148d1565b612b7e565b60405161061d9190614cb0565b60405180910390f35b610640600480360381019061063b91906148d1565b612b96565b6040516106539796959493929190614b7d565b60405180910390f35b610676600480360381019061067191906149ae565b612c91565b6040516106839190614cb0565b60405180910390f35b6106a660048036038101906106a19190614771565b613608565b005b6106c260048036038101906106bd91906148d1565b613700565b6040516106d59796959493929190614b7d565b60405180910390f35b60006106ea60016137fb565b9050801561070e576001600060016101000a81548160ff0219169083151502179055505b85606790805190602001906107249291906144cb565b50846068908051906020019061073b9291906144cb565b508360719080519060200190610752929190614555565b5082606560006101000a81548173ffffffffffffffffffffffffffffffffffffffff021916908373ffffffffffffffffffffffffffffffffffffffff16021790555081606660006101000a81548173ffffffffffffffffffffffffffffffffffffffff021916908373ffffffffffffffffffffffffffffffffffffffff160217905550670de0b6b3a7640000607481905550610e106076819055506018607781905550426075819055506108046138eb565b801561085d5760008060016101000a81548160ff0219169083151502179055507f7f26b83ff96e1f2b6a682f133852f6798a09c465da95921460cefb384740249860016040516108549190614c15565b60405180910390a15b505050505050565b6067818154811061087557600080fd5b906000526020600020016000915054906101000a900473ffffffffffffffffffffffffffffffffffffffff1681565b606a6020528060005260406000206000915090505481565b60006108e56074546108d7848661394490919063ffffffff16565b61395a90919063ffffffff16565b606560009054906101000a900473ffffffffffffffffffffffffffffffffffffffff1673ffffffffffffffffffffffffffffffffffffffff1663dd62ed3e33306040518363ffffffff1660e01b8152600401610942929190614af4565b60206040518083038186803b15801561095a57600080fd5b505afa15801561096e573d6000803e3d6000fd5b505050506040513d601f19601f8201168201806040525081019061099291906148fa565b101561099d57600080fd5b6000606c600086815260200190815260200160002054116109bd57600080fd5b6000606785815481106109f9577f4e487b7100000000000000000000000000000000000000000000000000000000600052603260045260246000fd5b9060005260206000200160009054906101000a900473ffffffffffffffffffffffffffffffffffffffff1690506000606a60008781526020019081526020016000205490505b600084118015610a65575084607960008381526020019081526020016000206003015411155b8015610a72575060008114155b15610e7157600060796000838152602001908152602001600020905084816004015410610ca657606560009054906101000a900473ffffffffffffffffffffffffffffffffffffffff1673ffffffffffffffffffffffffffffffffffffffff166323b872dd338360000160009054906101000a900473ffffffffffffffffffffffffffffffffffffffff16610b28607454610b1a87600301548c61394490919063ffffffff16565b61395a90919063ffffffff16565b6040518463ffffffff1660e01b8152600401610b4693929190614b1d565b602060405180830381600087803b158015610b6057600080fd5b505af1158015610b74573d6000803e3d6000fd5b505050506040513d601f19601f82011682018060405250810190610b9891906148a8565b508273ffffffffffffffffffffffffffffffffffffffff1663a9059cbb33876040518363ffffffff1660e01b8152600401610bd4929190614b54565b602060405180830381600087803b158015610bee57600080fd5b505af1158015610c02573d6000803e3d6000fd5b505050506040513d601f19601f82011682018060405250810190610c2691906148a8565b50610c3e85826004015461397090919063ffffffff16565b8160040181905550610c6d601e607060008a81526020019081526020016000205461398690919063ffffffff16565b421115610c8357610c8287826003015461399c565b5b600081600401541415610c9a57610c9982613a44565b5b60009350505050610e77565b606560009054906101000a900473ffffffffffffffffffffffffffffffffffffffff1673ffffffffffffffffffffffffffffffffffffffff166323b872dd338360000160009054906101000a900473ffffffffffffffffffffffffffffffffffffffff16610d39607454610d2b8760030154886004015461394490919063ffffffff16565b61395a90919063ffffffff16565b6040518463ffffffff1660e01b8152600401610d5793929190614b1d565b602060405180830381600087803b158015610d7157600080fd5b505af1158015610d85573d6000803e3d6000fd5b505050506040513d601f19601f82011682018060405250810190610da991906148a8565b508273ffffffffffffffffffffffffffffffffffffffff1663a9059cbb3383600401546040518363ffffffff1660e01b8152600401610de9929190614b54565b602060405180830381600087803b158015610e0357600080fd5b505af1158015610e17573d6000803e3d6000fd5b505050506040513d601f19601f82011682018060405250810190610e3b91906148a8565b50610e5381600401548661397090919063ffffffff16565b9450600082905081600501549250610e6a81613a44565b5050610a3f565b83925050505b9392505050565b60735481565b60696020528060005260406000206000915090505481565b610ea4613c1c565b73ffffffffffffffffffffffffffffffffffffffff16610ec2611fa9565b73ffffffffffffffffffffffffffffffffffffffff1614610f18576040517f08c379a0000000000000000000000000000000000000000000000000000000008152600401610f0f90614c70565b60405180910390fd5b6067839080600181540180825580915050600190039060005260206000200160009091909190916101000a81548173ffffffffffffffffffffffffffffffffffffffff021916908373ffffffffffffffffffffffffffffffffffffffff1602179055506068829080600181540180825580915050600190039060005260206000200160009091909190916101000a81548173ffffffffffffffffffffffffffffffffffffffff021916908373ffffffffffffffffffffffffffffffffffffffff1602179055506071819080600181540180825580915050600190039060005260206000200160009091909190915055505050565b60006110616074546110536078600086815260200190815260200160002060030154607860008781526020019081526020016000206004015461394490919063ffffffff16565b61395a90919063ffffffff16565b9050606560009054906101000a900473ffffffffffffffffffffffffffffffffffffffff1673ffffffffffffffffffffffffffffffffffffffff1663a9059cbb33836040518363ffffffff1660e01b81526004016110c0929190614b54565b602060405180830381600087803b1580156110da57600080fd5b505af11580156110ee573d6000803e3d6000fd5b505050506040513d601f19601f8201168201806040525081019061111291906148a8565b506078600083815260200190815260200160002060000160009054906101000a900473ffffffffffffffffffffffffffffffffffffffff1673ffffffffffffffffffffffffffffffffffffffff163373ffffffffffffffffffffffffffffffffffffffff161461118157600080fd5b61118a82613c24565b5050565b6068818154811061119e57600080fd5b906000526020600020016000915054906101000a900473ffffffffffffffffffffffffffffffffffffffff1681565b606c6020528060005260406000206000915090505481565b6000607960008481526020019081526020016000206040518060e00160405290816000820160009054906101000a900473ffffffffffffffffffffffffffffffffffffffff1673ffffffffffffffffffffffffffffffffffffffff1673ffffffffffffffffffffffffffffffffffffffff168152602001600182015481526020016002820154815260200160038201548152602001600482015481526020016005820154815260200160068201548152505090503373ffffffffffffffffffffffffffffffffffffffff16816000015173ffffffffffffffffffffffffffffffffffffffff16146112d557600080fd5b806080015182141580156112e95750600082115b6112f257600080fd5b6802b5e3af16b188000061132760745461131984606001518661394490919063ffffffff16565b61395a90919063ffffffff16565b101561133257600080fd5b60006067848154811061136e577f4e487b7100000000000000000000000000000000000000000000000000000000600052603260045260246000fd5b9060005260206000200160009054906101000a900473ffffffffffffffffffffffffffffffffffffffff1690506000838360800151116113bd578260800151846113b89190614fcc565b6113ce565b8383608001516113cd9190614fcc565b5b905060008360800151905084846080018181525050836079600088815260200190815260200160002060008201518160000160006101000a81548173ffffffffffffffffffffffffffffffffffffffff021916908373ffffffffffffffffffffffffffffffffffffffff1602179055506020820151816001015560408201518160020155606082015181600301556080820151816004015560a0820151816005015560c0820151816006015590505084811115611518578273ffffffffffffffffffffffffffffffffffffffff1663a9059cbb33846040518363ffffffff1660e01b81526004016114c0929190614b54565b602060405180830381600087803b1580156114da57600080fd5b505af11580156114ee573d6000803e3d6000fd5b505050506040513d601f19601f8201168201806040525081019061151291906148a8565b506115a9565b8273ffffffffffffffffffffffffffffffffffffffff166323b872dd3330856040518463ffffffff1660e01b815260040161155593929190614b1d565b602060405180830381600087803b15801561156f57600080fd5b505af1158015611583573d6000803e3d6000fd5b505050506040513d601f19601f820116820180604052508101906115a791906148a8565b505b505050505050565b60006802b5e3af16b18800006115e46074546115d6868861394490919063ffffffff16565b61395a90919063ffffffff16565b10156115ef57600080fd5b60006067868154811061162b577f4e487b7100000000000000000000000000000000000000000000000000000000600052603260045260246000fd5b9060005260206000200160009054906101000a900473ffffffffffffffffffffffffffffffffffffffff16905060008560786000606960008b81526020019081526020016000205481526020019081526020016000206003015410611740576116958787876121c4565b905060008114156116ab57600092505050611edf565b8173ffffffffffffffffffffffffffffffffffffffff166323b872dd3330846040518463ffffffff1660e01b81526004016116e893929190614b1d565b602060405180830381600087803b15801561170257600080fd5b505af1158015611716573d6000803e3d6000fd5b505050506040513d601f19601f8201168201806040525081019061173a91906148a8565b506117d1565b8173ffffffffffffffffffffffffffffffffffffffff166323b872dd3330886040518463ffffffff1660e01b815260040161177d93929190614b1d565b602060405180830381600087803b15801561179757600080fd5b505af11580156117ab573d6000803e3d6000fd5b505050506040513d601f19601f820116820180604052508101906117cf91906148a8565b505b607360008154809291906117e4906150d6565b919050555060006040518060e001604052803373ffffffffffffffffffffffffffffffffffffffff1681526020018981526020016073548152602001888152602001600084146118345783611836565b875b815260200160008152602001600081525090508060796000607354815260200190815260200160002060008201518160000160006101000a81548173ffffffffffffffffffffffffffffffffffffffff021916908373ffffffffffffffffffffffffffffffffffffffff1602179055506020820151816001015560408201518160020155606082015181600301556080820151816004015560a0820151816005015560c082015181600601559050506000606c60008a815260200190815260200160002054141561195157607354606a60008a815260200190815260200160002081905550606c6000898152602001908152602001600020600081548092919061193f906150d6565b91905055506073549350505050611edf565b600060796000606a60008c815260200190815260200160002054815260200190815260200160002090508060030154881015611a91578160400151606a60008b81526020019081526020016000208190555080600201548260a001818152505081604001518160060181905550606c60008a815260200190815260200160002060008154809291906119e2906150d6565b91905055508160796000607354815260200190815260200160002060008201518160000160006101000a81548173ffffffffffffffffffffffffffffffffffffffff021916908373ffffffffffffffffffffffffffffffffffffffff1602179055506020820151816001015560408201518160020155606082015181600301556080820151816004015560a0820151816005015560c08201518160060155905050607354945050505050611edf565b6000816005015490506000811415611b92578260400151826005018190555081600201548360c0018181525050606c60008b81526020019081526020016000206000815480929190611ae2906150d6565b91905055508260796000607354815260200190815260200160002060008201518160000160006101000a81548173ffffffffffffffffffffffffffffffffffffffff021916908373ffffffffffffffffffffffffffffffffffffffff1602179055506020820151816001015560408201518160020155606082015181600301556080820151816004015560a0820151816005015560c0820151816006015590505060735495505050505050611edf565b896079600089815260200190815260200160002060010154148015611bcc5750886079600089815260200190815260200160002060030154105b8015611bef57506000607960008981526020019081526020016000206004015414155b15611bf8578690505b5b8860796000838152602001908152602001600020600301541015611c5957600060796000838152602001908152602001600020600501541415611c3b57611c59565b60796000828152602001908152602001600020600501549050611bf9565b60006079600083815260200190815260200160002060050154148015611c945750886079600083815260200190815260200160002060030154105b15611d965782604001516079600083815260200190815260200160002060050181905550808360c0018181525050606c60008b81526020019081526020016000206000815480929190611ce6906150d6565b91905055508260796000607354815260200190815260200160002060008201518160000160006101000a81548173ffffffffffffffffffffffffffffffffffffffff021916908373ffffffffffffffffffffffffffffffffffffffff1602179055506020820151816001015560408201518160020155606082015181600301556080820151816004015560a0820151816005015560c0820151816006015590505060735495505050505050611edf565b826040015160796000607960008581526020019081526020016000206006015481526020019081526020016000206005018190555060796000828152602001908152602001600020600601548360c0018181525050808360a001818152505082604001516079600083815260200190815260200160002060060181905550606c60008b81526020019081526020016000206000815480929190611e38906150d6565b91905055508260796000607354815260200190815260200160002060008201518160000160006101000a81548173ffffffffffffffffffffffffffffffffffffffff021916908373ffffffffffffffffffffffffffffffffffffffff1602179055506020820151816001015560408201518160020155606082015181600301556080820151816004015560a0820151816005015560c0820151816006015590505050505050505b949350505050565b6000606c6000838152602001908152602001600020549050919050565b611f0c613c1c565b73ffffffffffffffffffffffffffffffffffffffff16611f2a611fa9565b73ffffffffffffffffffffffffffffffffffffffff1614611f80576040517f08c379a0000000000000000000000000000000000000000000000000000000008152600401611f7790614c70565b60405180910390fd5b611f8a6000613dfc565b565b6000606b6000838152602001908152602001600020549050919050565b6000603360009054906101000a900473ffffffffffffffffffffffffffffffffffffffff16905090565b60725481565b606e6020528060005260406000206000915090505481565b60006067607960008481526020019081526020016000206001015481548110612043577f4e487b7100000000000000000000000000000000000000000000000000000000600052603260045260246000fd5b9060005260206000200160009054906101000a900473ffffffffffffffffffffffffffffffffffffffff1690508073ffffffffffffffffffffffffffffffffffffffff1663a9059cbb3360796000868152602001908152602001600020600401546040518363ffffffff1660e01b81526004016120c1929190614b54565b602060405180830381600087803b1580156120db57600080fd5b505af11580156120ef573d6000803e3d6000fd5b505050506040513d601f19601f8201168201806040525081019061211391906148a8565b506079600083815260200190815260200160002060000160009054906101000a900473ffffffffffffffffffffffffffffffffffffffff1673ffffffffffffffffffffffffffffffffffffffff163373ffffffffffffffffffffffffffffffffffffffff161461218257600080fd5b61218b82613a44565b5050565b606d6020528060005260406000206000915090505481565b600060696000838152602001908152602001600020549050919050565b60008060678581548110612201577f4e487b7100000000000000000000000000000000000000000000000000000000600052603260045260246000fd5b9060005260206000200160009054906101000a900473ffffffffffffffffffffffffffffffffffffffff169050828173ffffffffffffffffffffffffffffffffffffffff1663dd62ed3e33306040518363ffffffff1660e01b815260040161226a929190614af4565b60206040518083038186803b15801561228257600080fd5b505afa158015612296573d6000803e3d6000fd5b505050506040513d601f19601f820116820180604052508101906122ba91906148fa565b10156122c557600080fd5b6000606b600087815260200190815260200160002054116122e557600080fd5b6000606960008781526020019081526020016000205490505b600084118015612324575084607860008381526020019081526020016000206003015410155b8015612331575060008114155b156127305760006078600083815260200190815260200160002090508481600401541061256557606560009054906101000a900473ffffffffffffffffffffffffffffffffffffffff1673ffffffffffffffffffffffffffffffffffffffff1663a9059cbb336123c26074546123b486600301548b61394490919063ffffffff16565b61395a90919063ffffffff16565b6040518363ffffffff1660e01b81526004016123df929190614b54565b602060405180830381600087803b1580156123f957600080fd5b505af115801561240d573d6000803e3d6000fd5b505050506040513d601f19601f8201168201806040525081019061243191906148a8565b508273ffffffffffffffffffffffffffffffffffffffff166323b872dd338360000160009054906101000a900473ffffffffffffffffffffffffffffffffffffffff16886040518463ffffffff1660e01b815260040161249393929190614b1d565b602060405180830381600087803b1580156124ad57600080fd5b505af11580156124c1573d6000803e3d6000fd5b505050506040513d601f19601f820116820180604052508101906124e591906148a8565b506124fd85826004015461397090919063ffffffff16565b816004018190555061252c601e607060008a81526020019081526020016000205461398690919063ffffffff16565b4211156125425761254187826003015461399c565b5b6000816004015414156125595761255882613c24565b5b60009350505050612736565b606560009054906101000a900473ffffffffffffffffffffffffffffffffffffffff1673ffffffffffffffffffffffffffffffffffffffff1663a9059cbb336125d36074546125c58660030154876004015461394490919063ffffffff16565b61395a90919063ffffffff16565b6040518363ffffffff1660e01b81526004016125f0929190614b54565b602060405180830381600087803b15801561260a57600080fd5b505af115801561261e573d6000803e3d6000fd5b505050506040513d601f19601f8201168201806040525081019061264291906148a8565b508273ffffffffffffffffffffffffffffffffffffffff166323b872dd338360000160009054906101000a900473ffffffffffffffffffffffffffffffffffffffff1684600401546040518463ffffffff1660e01b81526004016126a893929190614b1d565b602060405180830381600087803b1580156126c257600080fd5b505af11580156126d6573d6000803e3d6000fd5b505050506040513d601f19601f820116820180604052508101906126fa91906148a8565b5061271281600401548661397090919063ffffffff16565b945060008290508160050154925061272981613c24565b50506122fe565b83925050505b9392505050565b60706020528060005260406000206000915090505481565b606f6020528060005260406000206000915090505481565b6000606a6000838152602001908152602001600020549050919050565b6000607860008481526020019081526020016000206040518060e00160405290816000820160009054906101000a900473ffffffffffffffffffffffffffffffffffffffff1673ffffffffffffffffffffffffffffffffffffffff1673ffffffffffffffffffffffffffffffffffffffff168152602001600182015481526020016002820154815260200160038201548152602001600482015481526020016005820154815260200160068201548152505090503373ffffffffffffffffffffffffffffffffffffffff16816000015173ffffffffffffffffffffffffffffffffffffffff161461287a57600080fd5b8060800151821415801561288e5750600082115b61289757600080fd5b6802b5e3af16b18800006128cc6074546128be84606001518661394490919063ffffffff16565b61395a90919063ffffffff16565b10156128d757600080fd5b60006129086074546128fa8460600151856080015161394490919063ffffffff16565b61395a90919063ffffffff16565b9050600061293760745461292985606001518761394490919063ffffffff16565b61395a90919063ffffffff16565b9050600081831161295357828261294e9190614fcc565b612960565b818361295f9190614fcc565b5b905084846080018181525050836078600088815260200190815260200160002060008201518160000160006101000a81548173ffffffffffffffffffffffffffffffffffffffff021916908373ffffffffffffffffffffffffffffffffffffffff1602179055506020820151816001015560408201518160020155606082015181600301556080820151816004015560a0820151816005015560c0820151816006015590505081831115612ac357606560009054906101000a900473ffffffffffffffffffffffffffffffffffffffff1673ffffffffffffffffffffffffffffffffffffffff1663a9059cbb33836040518363ffffffff1660e01b8152600401612a6b929190614b54565b602060405180830381600087803b158015612a8557600080fd5b505af1158015612a99573d6000803e3d6000fd5b505050506040513d601f19601f82011682018060405250810190612abd91906148a8565b50612b76565b606560009054906101000a900473ffffffffffffffffffffffffffffffffffffffff1673ffffffffffffffffffffffffffffffffffffffff166323b872dd3330846040518463ffffffff1660e01b8152600401612b2293929190614b1d565b602060405180830381600087803b158015612b3c57600080fd5b505af1158015612b50573d6000803e3d6000fd5b505050506040513d601f19601f82011682018060405250810190612b7491906148a8565b505b505050505050565b606b6020528060005260406000206000915090505481565b600080600080600080600080607960008a81526020019081526020016000206040518060e00160405290816000820160009054906101000a900473ffffffffffffffffffffffffffffffffffffffff1673ffffffffffffffffffffffffffffffffffffffff1673ffffffffffffffffffffffffffffffffffffffff16815260200160018201548152602001600282015481526020016003820154815260200160048201548152602001600582015481526020016006820154815250509050806000015181602001518260400151836060015184608001518560a001518660c00151975097509750975097509750975050919395979092949650565b60006802b5e3af16b1880000612cc4607454612cb6868861394490919063ffffffff16565b61395a90919063ffffffff16565b1015612ccf57600080fd5b600080606c600088815260200190815260200160002054118015612d1c57508460796000606a60008a81526020019081526020016000205481526020019081526020016000206003015411155b15612e1e57612d2c8686866108bc565b90506000811415612d41576000915050613600565b606560009054906101000a900473ffffffffffffffffffffffffffffffffffffffff1673ffffffffffffffffffffffffffffffffffffffff166323b872dd3330612da8607454612d9a8b8861394490919063ffffffff16565b61395a90919063ffffffff16565b6040518463ffffffff1660e01b8152600401612dc693929190614b1d565b602060405180830381600087803b158015612de057600080fd5b505af1158015612df4573d6000803e3d6000fd5b505050506040513d601f19601f82011682018060405250810190612e1891906148a8565b50612ef7565b606560009054906101000a900473ffffffffffffffffffffffffffffffffffffffff1673ffffffffffffffffffffffffffffffffffffffff166323b872dd3330612e85607454612e778b8b61394490919063ffffffff16565b61395a90919063ffffffff16565b6040518463ffffffff1660e01b8152600401612ea393929190614b1d565b602060405180830381600087803b158015612ebd57600080fd5b505af1158015612ed1573d6000803e3d6000fd5b505050506040513d601f19601f82011682018060405250810190612ef591906148a8565b505b60726000815480929190612f0a906150d6565b919050555060006040518060e001604052803373ffffffffffffffffffffffffffffffffffffffff168152602001888152602001607254815260200187815260200160008414612f5a5783612f5c565b865b815260200160008152602001600081525090508060786000607254815260200190815260200160002060008201518160000160006101000a81548173ffffffffffffffffffffffffffffffffffffffff021916908373ffffffffffffffffffffffffffffffffffffffff1602179055506020820151816001015560408201518160020155606082015181600301556080820151816004015560a0820151816005015560c082015181600601559050506000606b6000898152602001908152602001600020541415613076576072546069600089815260200190815260200160002081905550606b60008881526020019081526020016000206000815480929190613065906150d6565b919050555060725492505050613600565b600060786000606960008b8152602001908152602001600020548152602001908152602001600020905080600301548711156131b5578160400151606960008a81526020019081526020016000208190555080600201548260a001818152505081604001518160060181905550606b60008981526020019081526020016000206000815480929190613107906150d6565b91905055508160786000607254815260200190815260200160002060008201518160000160006101000a81548173ffffffffffffffffffffffffffffffffffffffff021916908373ffffffffffffffffffffffffffffffffffffffff1602179055506020820151816001015560408201518160020155606082015181600301556080820151816004015560a0820151816005015560c082015181600601559050506072549350505050613600565b60008160050154905060008114156132b5578260400151826005018190555081600201548360c0018181525050606b60008a81526020019081526020016000206000815480929190613206906150d6565b91905055508260786000607254815260200190815260200160002060008201518160000160006101000a81548173ffffffffffffffffffffffffffffffffffffffff021916908373ffffffffffffffffffffffffffffffffffffffff1602179055506020820151816001015560408201518160020155606082015181600301556080820151816004015560a0820151816005015560c08201518160060155905050607254945050505050613600565b8860786000888152602001908152602001600020600101541480156132ef5750876078600088815260200190815260200160002060030154115b801561331257506000607860008881526020019081526020016000206004015414155b1561331b578590505b5b876078600083815260200190815260200160002060030154111561337c5760006078600083815260200190815260200160002060050154141561335e5761337c565b6078600082815260200190815260200160002060050154905061331c565b600060786000838152602001908152602001600020600501541480156133b75750876078600083815260200190815260200160002060030154115b156134b85782604001516078600083815260200190815260200160002060050181905550808360c0018181525050606b60008a81526020019081526020016000206000815480929190613409906150d6565b91905055508260786000607254815260200190815260200160002060008201518160000160006101000a81548173ffffffffffffffffffffffffffffffffffffffff021916908373ffffffffffffffffffffffffffffffffffffffff1602179055506020820151816001015560408201518160020155606082015181600301556080820151816004015560a0820151816005015560c08201518160060155905050607254945050505050613600565b826040015160786000607860008581526020019081526020016000206006015481526020019081526020016000206005018190555060786000828152602001908152602001600020600601548360c0018181525050808360a001818152505082604001516078600083815260200190815260200160002060060181905550606b60008a8152602001908152602001600020600081548092919061355a906150d6565b91905055508260786000607254815260200190815260200160002060008201518160000160006101000a81548173ffffffffffffffffffffffffffffffffffffffff021916908373ffffffffffffffffffffffffffffffffffffffff1602179055506020820151816001015560408201518160020155606082015181600301556080820151816004015560a0820151816005015560c08201518160060155905050505050505b949350505050565b613610613c1c565b73ffffffffffffffffffffffffffffffffffffffff1661362e611fa9565b73ffffffffffffffffffffffffffffffffffffffff1614613684576040517f08c379a000000000000000000000000000000000000000000000000000000000815260040161367b90614c70565b60405180910390fd5b600073ffffffffffffffffffffffffffffffffffffffff168173ffffffffffffffffffffffffffffffffffffffff1614156136f4576040517f08c379a00000000000000000000000000000000000000000000000000000000081526004016136eb90614c30565b60405180910390fd5b6136fd81613dfc565b50565b600080600080600080600080607860008a81526020019081526020016000206040518060e00160405290816000820160009054906101000a900473ffffffffffffffffffffffffffffffffffffffff1673ffffffffffffffffffffffffffffffffffffffff1673ffffffffffffffffffffffffffffffffffffffff16815260200160018201548152602001600282015481526020016003820154815260200160048201548152602001600582015481526020016006820154815250509050806000015181602001518260400151836060015184608001518560a001518660c00151975097509750975097509750975050919395979092949650565b60008060019054906101000a900460ff16156138725760018260ff1614801561382a575061382830613ec2565b155b613869576040517f08c379a000000000000000000000000000000000000000000000000000000000815260040161386090614c50565b60405180910390fd5b600090506138e6565b8160ff1660008054906101000a900460ff1660ff16106138c7576040517f08c379a00000000000000000000000000000000000000000000000000000000081526004016138be90614c50565b60405180910390fd5b816000806101000a81548160ff021916908360ff160217905550600190505b919050565b600060019054906101000a900460ff1661393a576040517f08c379a000000000000000000000000000000000000000000000000000000000815260040161393190614c90565b60405180910390fd5b613942613ee5565b565b600081836139529190614ede565b905092915050565b600081836139689190614ead565b905092915050565b6000818361397e9190614fcc565b905092915050565b600081836139949190614ded565b905092915050565b6139b360765460755461398690919063ffffffff16565b42106139c2576139c1613f46565b5b6139e881606d60008581526020019081526020016000205461398690919063ffffffff16565b606d600084815260200190815260200160002081905550606f60008381526020019081526020016000206000815480929190613a23906150d6565b91905055504260706000848152602001908152602001600020819055505050565b600060796000838152602001908152602001600020600601541415613a8757613a826079600083815260200190815260200160002060010154614196565b613c19565b600060796000838152602001908152602001600020600501541415613add576000607960006079600085815260200190815260200160002060060154815260200190815260200160002060050181905550613b6c565b607960008281526020019081526020016000206005015460796000607960008581526020019081526020016000206006015481526020019081526020016000206005018190555060796000828152602001908152602001600020600601546079600060796000858152602001908152602001600020600501548152602001908152602001600020600601819055505b60796000828152602001908152602001600020600080820160006101000a81549073ffffffffffffffffffffffffffffffffffffffff02191690556001820160009055600282016000905560038201600090556004820160009055600582016000905560068201600090555050606c6000607960008481526020019081526020016000206001015481526020019081526020016000206000815480929190613c139061507b565b91905055505b50565b600033905090565b600060786000838152602001908152602001600020600601541415613c6757613c6260786000838152602001908152602001600020600101546142a8565b613df9565b600060786000838152602001908152602001600020600501541415613cbd576000607860006078600085815260200190815260200160002060060154815260200190815260200160002060050181905550613d4c565b607860008281526020019081526020016000206005015460786000607860008581526020019081526020016000206006015481526020019081526020016000206005018190555060786000828152602001908152602001600020600601546078600060786000858152602001908152602001600020600501548152602001908152602001600020600601819055505b60786000828152602001908152602001600020600080820160006101000a81549073ffffffffffffffffffffffffffffffffffffffff02191690556001820160009055600282016000905560038201600090556004820160009055600582016000905560068201600090555050606b6000607860008481526020019081526020016000206001015481526020019081526020016000206000815480929190613df39061507b565b91905055505b50565b6000603360009054906101000a900473ffffffffffffffffffffffffffffffffffffffff16905081603360006101000a81548173ffffffffffffffffffffffffffffffffffffffff021916908373ffffffffffffffffffffffffffffffffffffffff1602179055508173ffffffffffffffffffffffffffffffffffffffff168173ffffffffffffffffffffffffffffffffffffffff167f8be0079c531659141344cd1fd0a4f28419497f9722a3daafe3b4186f6b6457e060405160405180910390a35050565b6000808273ffffffffffffffffffffffffffffffffffffffff163b119050919050565b600060019054906101000a900460ff16613f34576040517f08c379a0000000000000000000000000000000000000000000000000000000008152600401613f2b90614c90565b60405180910390fd5b613f44613f3f613c1c565b613dfc565b565b60005b606880549050811015614193576000613f61826143ba565b90506000606660009054906101000a900473ffffffffffffffffffffffffffffffffffffffff1673ffffffffffffffffffffffffffffffffffffffff1663a2173df460718581548110613fdd577f4e487b7100000000000000000000000000000000000000000000000000000000600052603260045260246000fd5b90600052602060002001546076546040518363ffffffff1660e01b8152600401614008929190614bec565b60206040518083038186803b15801561402057600080fd5b505afa158015614034573d6000803e3d6000fd5b505050506040513d601f19601f8201168201806040525081019061405891906148fa565b9050600061406f828461448990919063ffffffff16565b905060006140886077548361449f90919063ffffffff16565b9050600060745490506140a482826144b590919063ffffffff16565b90506000606887815481106140e2577f4e487b7100000000000000000000000000000000000000000000000000000000600052603260045260246000fd5b9060005260206000200160009054906101000a900473ffffffffffffffffffffffffffffffffffffffff1690508073ffffffffffffffffffffffffffffffffffffffff16638f9bf833836040518263ffffffff1660e01b81526004016141489190614cb0565b600060405180830381600087803b15801561416257600080fd5b505af1158015614176573d6000803e3d6000fd5b50505050505050505050808061418b906150d6565b915050613f49565b50565b6000606a60008381526020019081526020016000205490506079600082815260200190815260200160002060050154606a600084815260200190815260200160002081905550600060796000607960008581526020019081526020016000206005015481526020019081526020016000206006018190555060796000828152602001908152602001600020600080820160006101000a81549073ffffffffffffffffffffffffffffffffffffffff02191690556001820160009055600282016000905560038201600090556004820160009055600582016000905560068201600090555050606c6000838152602001908152602001600020600081548092919061429f9061507b565b91905055505050565b60006069600083815260200190815260200160002054905060786000828152602001908152602001600020600501546069600084815260200190815260200160002081905550600060786000607860008581526020019081526020016000206005015481526020019081526020016000206006018190555060786000828152602001908152602001600020600080820160006101000a81549073ffffffffffffffffffffffffffffffffffffffff02191690556001820160009055600282016000905560038201600090556004820160009055600582016000905560068201600090555050606b600083815260200190815260200160002060008154809291906143b19061507b565b91905055505050565b6000806143f6606e600085815260200190815260200160002054606d60008681526020019081526020016000205461397090919063ffffffff16565b90506000614420606f6000868152602001908152602001600020548361395a90919063ffffffff16565b90506000606f6000868152602001908152602001600020819055506000606d600086815260200190815260200160002081905550606d600085815260200190815260200160002054606e6000868152602001908152602001600020819055508092505050919050565b600081836144979190614f38565b905092915050565b600081836144ad9190614e43565b905092915050565b600081836144c39190614d59565b905092915050565b828054828255906000526020600020908101928215614544579160200282015b828111156145435782518260006101000a81548173ffffffffffffffffffffffffffffffffffffffff021916908373ffffffffffffffffffffffffffffffffffffffff160217905550916020019190600101906144eb565b5b50905061455191906145a2565b5090565b828054828255906000526020600020908101928215614591579160200282015b82811115614590578251825591602001919060010190614575565b5b50905061459e91906145bf565b5090565b5b808211156145bb5760008160009055506001016145a3565b5090565b5b808211156145d85760008160009055506001016145c0565b5090565b60006145ef6145ea84614cf0565b614ccb565b9050808382526020820190508285602086028201111561460e57600080fd5b60005b8581101561463e578161462488826146b4565b845260208401935060208301925050600181019050614611565b5050509392505050565b600061465b61465684614d1c565b614ccb565b9050808382526020820190508285602086028201111561467a57600080fd5b60005b858110156146aa57816146908882614732565b84526020840193506020830192505060018101905061467d565b5050509392505050565b6000813590506146c3816152d3565b92915050565b600082601f8301126146da57600080fd5b81356146ea8482602086016145dc565b91505092915050565b600082601f83011261470457600080fd5b8135614714848260208601614648565b91505092915050565b60008151905061472c816152ea565b92915050565b60008135905061474181615301565b92915050565b60008135905061475681615318565b92915050565b60008151905061476b81615318565b92915050565b60006020828403121561478357600080fd5b6000614791848285016146b4565b91505092915050565b6000806000606084860312156147af57600080fd5b60006147bd868287016146b4565b93505060206147ce868287016146b4565b92505060406147df86828701614732565b9150509250925092565b600080600080600060a0868803121561480157600080fd5b600086013567ffffffffffffffff81111561481b57600080fd5b614827888289016146c9565b955050602086013567ffffffffffffffff81111561484457600080fd5b614850888289016146c9565b945050604086013567ffffffffffffffff81111561486d57600080fd5b614879888289016146f3565b935050606061488a888289016146b4565b925050608061489b888289016146b4565b9150509295509295909350565b6000602082840312156148ba57600080fd5b60006148c88482850161471d565b91505092915050565b6000602082840312156148e357600080fd5b60006148f184828501614747565b91505092915050565b60006020828403121561490c57600080fd5b600061491a8482850161475c565b91505092915050565b6000806040838503121561493657600080fd5b600061494485828601614747565b925050602061495585828601614747565b9150509250929050565b60008060006060848603121561497457600080fd5b600061498286828701614747565b935050602061499386828701614747565b92505060406149a486828701614747565b9150509250925092565b600080600080608085870312156149c457600080fd5b60006149d287828801614747565b94505060206149e387828801614747565b93505060406149f487828801614747565b9250506060614a0587828801614747565b91505092959194509250565b614a1a81615000565b82525050565b614a298161501e565b82525050565b614a3881615069565b82525050565b6000614a4b602683614d48565b9150614a56826151bd565b604082019050919050565b6000614a6e602e83614d48565b9150614a798261520c565b604082019050919050565b6000614a91602083614d48565b9150614a9c8261525b565b602082019050919050565b6000614ab4602b83614d48565b9150614abf82615284565b604082019050919050565b614ad381615052565b82525050565b6000602082019050614aee6000830184614a11565b92915050565b6000604082019050614b096000830185614a11565b614b166020830184614a11565b9392505050565b6000606082019050614b326000830186614a11565b614b3f6020830185614a11565b614b4c6040830184614aca565b949350505050565b6000604082019050614b696000830185614a11565b614b766020830184614aca565b9392505050565b600060e082019050614b92600083018a614a11565b614b9f6020830189614aca565b614bac6040830188614aca565b614bb96060830187614aca565b614bc66080830186614aca565b614bd360a0830185614aca565b614be060c0830184614aca565b98975050505050505050565b6000604082019050614c016000830185614a20565b614c0e6020830184614aca565b9392505050565b6000602082019050614c2a6000830184614a2f565b92915050565b60006020820190508181036000830152614c4981614a3e565b9050919050565b60006020820190508181036000830152614c6981614a61565b9050919050565b60006020820190508181036000830152614c8981614a84565b9050919050565b60006020820190508181036000830152614ca981614aa7565b9050919050565b6000602082019050614cc56000830184614aca565b92915050565b6000614cd5614ce6565b9050614ce182826150a5565b919050565b6000604051905090565b600067ffffffffffffffff821115614d0b57614d0a61517d565b5b602082029050602081019050919050565b600067ffffffffffffffff821115614d3757614d3661517d565b5b602082029050602081019050919050565b600082825260208201905092915050565b6000614d6482615028565b9150614d6f83615028565b9250817f7fffffffffffffffffffffffffffffffffffffffffffffffffffffffffffffff03831360008312151615614daa57614da961511f565b5b817f8000000000000000000000000000000000000000000000000000000000000000038312600083121615614de257614de161511f565b5b828201905092915050565b6000614df882615052565b9150614e0383615052565b9250827fffffffffffffffffffffffffffffffffffffffffffffffffffffffffffffffff03821115614e3857614e3761511f565b5b828201905092915050565b6000614e4e82615028565b9150614e5983615028565b925082614e6957614e6861514e565b5b600160000383147f800000000000000000000000000000000000000000000000000000000000000083141615614ea257614ea161511f565b5b828205905092915050565b6000614eb882615052565b9150614ec383615052565b925082614ed357614ed261514e565b5b828204905092915050565b6000614ee982615052565b9150614ef483615052565b9250817fffffffffffffffffffffffffffffffffffffffffffffffffffffffffffffffff0483118215151615614f2d57614f2c61511f565b5b828202905092915050565b6000614f4382615028565b9150614f4e83615028565b9250827f800000000000000000000000000000000000000000000000000000000000000001821260008412151615614f8957614f8861511f565b5b827f7fffffffffffffffffffffffffffffffffffffffffffffffffffffffffffffff018213600084121615614fc157614fc061511f565b5b828203905092915050565b6000614fd782615052565b9150614fe283615052565b925082821015614ff557614ff461511f565b5b828203905092915050565b600061500b82615032565b9050919050565b60008115159050919050565b6000819050919050565b6000819050919050565b600073ffffffffffffffffffffffffffffffffffffffff82169050919050565b6000819050919050565b600060ff82169050919050565b60006150748261505c565b9050919050565b600061508682615052565b9150600082141561509a5761509961511f565b5b600182039050919050565b6150ae826151ac565b810181811067ffffffffffffffff821117156150cd576150cc61517d565b5b80604052505050565b60006150e182615052565b91507fffffffffffffffffffffffffffffffffffffffffffffffffffffffffffffffff8214156151145761511361511f565b5b600182019050919050565b7f4e487b7100000000000000000000000000000000000000000000000000000000600052601160045260246000fd5b7f4e487b7100000000000000000000000000000000000000000000000000000000600052601260045260246000fd5b7f4e487b7100000000000000000000000000000000000000000000000000000000600052604160045260246000fd5b6000601f19601f8301169050919050565b7f4f776e61626c653a206e6577206f776e657220697320746865207a65726f206160008201527f6464726573730000000000000000000000000000000000000000000000000000602082015250565b7f496e697469616c697a61626c653a20636f6e747261637420697320616c72656160008201527f647920696e697469616c697a6564000000000000000000000000000000000000602082015250565b7f4f776e61626c653a2063616c6c6572206973206e6f7420746865206f776e6572600082015250565b7f496e697469616c697a61626c653a20636f6e7472616374206973206e6f74206960008201527f6e697469616c697a696e67000000000000000000000000000000000000000000602082015250565b6152dc81615000565b81146152e757600080fd5b50565b6152f381615012565b81146152fe57600080fd5b50565b61530a8161501e565b811461531557600080fd5b50565b61532181615052565b811461532c57600080fd5b5056fea2646970667358221220c0c993713b0b88d3fa50d0a3f44ecd1ca3458627db9dfe82afb943e89cae62c564736f6c63430008040033",
  "linkReferences": {},
  "deployedLinkReferences": {}
}